{
  "contractName": "Verification",
  "abi": [
    {
      "inputs": [],
      "stateMutability": "nonpayable",
      "type": "constructor"
    },
    {
      "anonymous": false,
      "inputs": [
        {
          "indexed": true,
          "internalType": "address",
          "name": "_exporter",
          "type": "address"
        },
        {
          "indexed": false,
          "internalType": "string",
          "name": "_ipfsHash",
          "type": "string"
        }
      ],
      "name": "addHash",
      "type": "event"
    },
    {
      "inputs": [],
      "name": "count_Exporters",
      "outputs": [
        {
          "internalType": "uint16",
          "name": "",
          "type": "uint16"
        }
      ],
      "stateMutability": "view",
      "type": "function"
    },
    {
      "inputs": [],
      "name": "count_hashes",
      "outputs": [
        {
          "internalType": "uint16",
          "name": "",
          "type": "uint16"
        }
      ],
      "stateMutability": "view",
      "type": "function"
    },
    {
      "inputs": [],
      "name": "owner",
      "outputs": [
        {
          "internalType": "address",
          "name": "",
          "type": "address"
        }
      ],
      "stateMutability": "view",
      "type": "function"
    },
    {
      "inputs": [
        {
          "internalType": "address",
          "name": "_add",
          "type": "address"
        },
        {
          "internalType": "string",
          "name": "_info",
          "type": "string"
        }
      ],
      "name": "add_Exporter",
      "outputs": [],
      "stateMutability": "nonpayable",
      "type": "function"
    },
    {
      "inputs": [
        {
          "internalType": "address",
          "name": "_add",
          "type": "address"
        }
      ],
      "name": "delete_Exporter",
      "outputs": [],
      "stateMutability": "nonpayable",
      "type": "function"
    },
    {
      "inputs": [
        {
          "internalType": "address",
          "name": "_add",
          "type": "address"
        },
        {
          "internalType": "string",
          "name": "_newInfo",
          "type": "string"
        }
      ],
      "name": "alter_Exporter",
      "outputs": [],
      "stateMutability": "nonpayable",
      "type": "function"
    },
    {
      "inputs": [
        {
          "internalType": "address",
          "name": "_newOwner",
          "type": "address"
        }
      ],
      "name": "changeOwner",
      "outputs": [],
      "stateMutability": "nonpayable",
      "type": "function"
    },
    {
      "inputs": [
        {
          "internalType": "bytes32",
          "name": "hash",
          "type": "bytes32"
        },
        {
          "internalType": "string",
          "name": "_ipfs",
          "type": "string"
        }
      ],
      "name": "addDocHash",
      "outputs": [],
      "stateMutability": "nonpayable",
      "type": "function"
    },
    {
      "inputs": [
        {
          "internalType": "bytes32",
          "name": "_hash",
          "type": "bytes32"
        }
      ],
      "name": "findDocHash",
      "outputs": [
        {
          "internalType": "uint256",
          "name": "",
          "type": "uint256"
        },
        {
          "internalType": "uint256",
          "name": "",
          "type": "uint256"
        },
        {
          "internalType": "string",
          "name": "",
          "type": "string"
        },
        {
          "internalType": "string",
          "name": "",
          "type": "string"
        }
      ],
      "stateMutability": "view",
      "type": "function"
    },
    {
      "inputs": [
        {
          "internalType": "bytes32",
          "name": "_hash",
          "type": "bytes32"
        }
      ],
      "name": "deleteHash",
      "outputs": [],
      "stateMutability": "nonpayable",
      "type": "function"
    },
    {
      "inputs": [
        {
          "internalType": "address",
          "name": "_add",
          "type": "address"
        }
      ],
      "name": "getExporterInfo",
      "outputs": [
        {
          "internalType": "string",
          "name": "",
          "type": "string"
        }
      ],
      "stateMutability": "view",
      "type": "function"
    }
  ],
  "bytecode": "0x608060405260008060006101000a81548161ffff021916908361ffff16021790555060008060026101000a81548161ffff021916908361ffff16021790555034801561004a57600080fd5b5033600060046101000a81548173ffffffffffffffffffffffffffffffffffffffff021916908373ffffffffffffffffffffffffffffffffffffffff1602179055506116918061009b6000396000f3fe608060405234801561001057600080fd5b50600436106100a95760003560e01c806363f0bfce1161007157806363f0bfce1461038b5780636ed73e48146103b95780638da5cb5b146103db578063a6f9dae11461040f578063bf3ccf4814610453578063cf3457bf146104d6576100a9565b806305c8dc19146100ae57806324ac89cb1461016b57806343f6f548146101af5780634cf00d3f146101d1578063505cd5d0146102f2575b600080fd5b6100f0600480360360208110156100c457600080fd5b81019080803573ffffffffffffffffffffffffffffffffffffffff16906020019092919050505061056f565b6040518080602001828103825283818151815260200191508051906020019080838360005b83811015610130578082015181840152602081019050610115565b50505050905090810190601f16801561015d5780820380516001836020036101000a031916815260200191505b509250505060405180910390f35b6101ad6004803603602081101561018157600080fd5b81019080803573ffffffffffffffffffffffffffffffffffffffff169060200190929190505050610653565b005b6101b7610844565b604051808261ffff16815260200191505060405180910390f35b6101fd600480360360208110156101e757600080fd5b8101908080359060200190929190505050610858565b604051808581526020018481526020018060200180602001838103835285818151815260200191508051906020019080838360005b8381101561024d578082015181840152602081019050610232565b50505050905090810190601f16801561027a5780820380516001836020036101000a031916815260200191505b50838103825284818151815260200191508051906020019080838360005b838110156102b3578082015181840152602081019050610298565b50505050905090810190601f1680156102e05780820380516001836020036101000a031916815260200191505b50965050505050505060405180910390f35b6103896004803603604081101561030857600080fd5b81019080803573ffffffffffffffffffffffffffffffffffffffff1690602001909291908035906020019064010000000081111561034557600080fd5b82018360208201111561035757600080fd5b8035906020019184600183028401116401000000008311171561037957600080fd5b90919293919293905050506109ff565b005b6103b7600480360360208110156103a157600080fd5b8101908080359060200190929190505050610b66565b005b6103c1610e31565b604051808261ffff16815260200191505060405180910390f35b6103e3610e43565b604051808273ffffffffffffffffffffffffffffffffffffffff16815260200191505060405180910390f35b6104516004803603602081101561042557600080fd5b81019080803573ffffffffffffffffffffffffffffffffffffffff169060200190929190505050610e69565b005b6104d46004803603604081101561046957600080fd5b81019080803590602001909291908035906020019064010000000081111561049057600080fd5b8201836020820111156104a257600080fd5b803590602001918460018302840111640100000000831117156104c457600080fd5b9091929391929390505050610fa9565b005b61056d600480360360408110156104ec57600080fd5b81019080803573ffffffffffffffffffffffffffffffffffffffff1690602001909291908035906020019064010000000081111561052957600080fd5b82018360208201111561053b57600080fd5b8035906020019184600183028401116401000000008311171561055d57600080fd5b90919293919293905050506112e5565b005b6060600260008373ffffffffffffffffffffffffffffffffffffffff1673ffffffffffffffffffffffffffffffffffffffff1681526020019081526020016000206001018054600181600116156101000203166002900480601f0160208091040260200160405190810160405280929190818152602001828054600181600116156101000203166002900480156106475780601f1061061c57610100808354040283529160200191610647565b820191906000526020600020905b81548152906001019060200180831161062a57829003601f168201915b50505050509050919050565b600060049054906101000a900473ffffffffffffffffffffffffffffffffffffffff1673ffffffffffffffffffffffffffffffffffffffff163373ffffffffffffffffffffffffffffffffffffffff1614610716576040517f08c379a00000000000000000000000000000000000000000000000000000000081526004018080602001828103825260178152602001807f43616c6c6572206973206e6f7420746865206f776e657200000000000000000081525060200191505060405180910390fd5b6000600260008373ffffffffffffffffffffffffffffffffffffffff1673ffffffffffffffffffffffffffffffffffffffff16815260200190815260200160002060000154141561076357fe5b6000600260008373ffffffffffffffffffffffffffffffffffffffff1673ffffffffffffffffffffffffffffffffffffffff1681526020019081526020016000206000018190555060405180602001604052806000815250600260008373ffffffffffffffffffffffffffffffffffffffff1673ffffffffffffffffffffffffffffffffffffffff16815260200190815260200160002060010190805190602001906108109291906114c1565b5060008081819054906101000a900461ffff166001900391906101000a81548161ffff021916908361ffff16021790555050565b600060029054906101000a900461ffff1681565b600080606080600160008681526020019081526020016000206000015460016000878152602001908152602001600020600101546001600088815260200190815260200160002060020160016000898152602001908152602001600020600301818054600181600116156101000203166002900480601f01602080910402602001604051908101604052809291908181526020018280546001816001161561010002031660029004801561094d5780601f106109225761010080835404028352916020019161094d565b820191906000526020600020905b81548152906001019060200180831161093057829003601f168201915b50505050509150808054600181600116156101000203166002900480601f0160208091040260200160405190810160405280929190818152602001828054600181600116156101000203166002900480156109e95780601f106109be576101008083540402835291602001916109e9565b820191906000526020600020905b8154815290600101906020018083116109cc57829003601f168201915b5050505050905093509350935093509193509193565b600060049054906101000a900473ffffffffffffffffffffffffffffffffffffffff1673ffffffffffffffffffffffffffffffffffffffff163373ffffffffffffffffffffffffffffffffffffffff1614610ac2576040517f08c379a00000000000000000000000000000000000000000000000000000000081526004018080602001828103825260178152602001807f43616c6c6572206973206e6f7420746865206f776e657200000000000000000081525060200191505060405180910390fd5b6000600260008573ffffffffffffffffffffffffffffffffffffffff1673ffffffffffffffffffffffffffffffffffffffff168152602001908152602001600020600001541415610b0f57fe5b8181600260008673ffffffffffffffffffffffffffffffffffffffff1673ffffffffffffffffffffffffffffffffffffffff1681526020019081526020016000206001019190610b60929190611541565b50505050565b80600160008281526020019081526020016000206002016040516020018082805460018160011615610100020316600290048015610bdb5780601f10610bb9576101008083540402835291820191610bdb565b820191906000526020600020905b815481529060010190602001808311610bc7575b505091505060405160208183030381529060405280519060200120600260003373ffffffffffffffffffffffffffffffffffffffff1673ffffffffffffffffffffffffffffffffffffffff1681526020019081526020016000206001016040516020018082805460018160011615610100020316600290048015610c965780601f10610c74576101008083540402835291820191610c96565b820191906000526020600020905b815481529060010190602001808311610c82575b50509150506040516020818303038152906040528051906020012014610d07576040517f08c379a000000000000000000000000000000000000000000000000000000000815260040180806020018281038252602f81526020018061162d602f913960400191505060405180910390fd5b6000600260003373ffffffffffffffffffffffffffffffffffffffff1673ffffffffffffffffffffffffffffffffffffffff168152602001908152602001600020600001541415610da3576040517f08c379a00000000000000000000000000000000000000000000000000000000081526004018080602001828103825260268152602001806116076026913960400191505060405180910390fd5b600060016000848152602001908152602001600020600101541415610dc457fe5b60006001600084815260200190815260200160002060000181905550600060016000848152602001908152602001600020600101819055506000600281819054906101000a900461ffff166001900391906101000a81548161ffff021916908361ffff1602179055505050565b60008054906101000a900461ffff1681565b600060049054906101000a900473ffffffffffffffffffffffffffffffffffffffff1681565b600060049054906101000a900473ffffffffffffffffffffffffffffffffffffffff1673ffffffffffffffffffffffffffffffffffffffff163373ffffffffffffffffffffffffffffffffffffffff1614610f2c576040517f08c379a00000000000000000000000000000000000000000000000000000000081526004018080602001828103825260178152602001807f43616c6c6572206973206e6f7420746865206f776e657200000000000000000081525060200191505060405180910390fd5b80600073ffffffffffffffffffffffffffffffffffffffff168173ffffffffffffffffffffffffffffffffffffffff161415610f6457fe5b81600060046101000a81548173ffffffffffffffffffffffffffffffffffffffff021916908373ffffffffffffffffffffffffffffffffffffffff1602179055505050565b6000600260003373ffffffffffffffffffffffffffffffffffffffff1673ffffffffffffffffffffffffffffffffffffffff168152602001908152602001600020600001541415611045576040517f08c379a00000000000000000000000000000000000000000000000000000000081526004018080602001828103825260268152602001806116076026913960400191505060405180910390fd5b60006001600085815260200190815260200160002060000154148015611081575060006001600085815260200190815260200160002060010154145b61108757fe5b61108f6115c1565b6040518060800160405280438152602001428152602001600260003373ffffffffffffffffffffffffffffffffffffffff1673ffffffffffffffffffffffffffffffffffffffff1681526020019081526020016000206001018054600181600116156101000203166002900480601f01602080910402602001604051908101604052809291908181526020018280546001816001161561010002031660029004801561117c5780601f106111515761010080835404028352916020019161117c565b820191906000526020600020905b81548152906001019060200180831161115f57829003601f168201915b5050505050815260200184848080601f016020809104026020016040519081016040528093929190818152602001838380828437600081840152601f19601f8201169050808301925050505050505081525090508060016000868152602001908152602001600020600082015181600001556020820151816001015560408201518160020190805190602001906112149291906114c1565b5060608201518160030190805190602001906112319291906114c1565b509050506000600281819054906101000a900461ffff1660010191906101000a81548161ffff021916908361ffff1602179055503373ffffffffffffffffffffffffffffffffffffffff167f331f916dac8170a5e3a8a5c82c9de7950bb6cadfb098253c080cb72851b26470848460405180806020018281038252848482818152602001925080828437600081840152601f19601f820116905080830192505050935050505060405180910390a250505050565b600060049054906101000a900473ffffffffffffffffffffffffffffffffffffffff1673ffffffffffffffffffffffffffffffffffffffff163373ffffffffffffffffffffffffffffffffffffffff16146113a8576040517f08c379a00000000000000000000000000000000000000000000000000000000081526004018080602001828103825260178152602001807f43616c6c6572206973206e6f7420746865206f776e657200000000000000000081525060200191505060405180910390fd5b6000600260008573ffffffffffffffffffffffffffffffffffffffff1673ffffffffffffffffffffffffffffffffffffffff16815260200190815260200160002060000154146113f457fe5b43600260008573ffffffffffffffffffffffffffffffffffffffff1673ffffffffffffffffffffffffffffffffffffffff168152602001908152602001600020600001819055508181600260008673ffffffffffffffffffffffffffffffffffffffff1673ffffffffffffffffffffffffffffffffffffffff168152602001908152602001600020600101919061148c929190611541565b5060008081819054906101000a900461ffff1660010191906101000a81548161ffff021916908361ffff160217905550505050565b828054600181600116156101000203166002900490600052602060002090601f016020900481019282601f1061150257805160ff1916838001178555611530565b82800160010185558215611530579182015b8281111561152f578251825591602001919060010190611514565b5b50905061153d91906115e9565b5090565b828054600181600116156101000203166002900490600052602060002090601f016020900481019282601f1061158257803560ff19168380011785556115b0565b828001600101855582156115b0579182015b828111156115af578235825591602001919060010190611594565b5b5090506115bd91906115e9565b5090565b6040518060800160405280600081526020016000815260200160608152602001606081525090565b5b808211156116025760008160009055506001016115ea565b509056fe43616c6c6572206e6f7420617574686f726973656420746f2061646420646f63756d656e747343616c6c6572206973206e6f742020617574686f726973656420746f2065646974207468697320646f63756d656e74a2646970667358221220d59e50421abf62f04721e4080e9212e9a7370686db60a56f1cdec7a5a7588e4f64736f6c63430007000033",
  "immutableReferences": {},
  "source": "// SPDX-License-Identifier: GPL-3.0\r\n\r\npragma solidity >=0.7.0 <0.9.0;\r\n\r\ncontract Verification {\r\n    constructor() { owner = msg.sender; }\r\n    uint16 public count_Exporters =0;\r\n    uint16 public count_hashes=0;\r\n    address public owner;\r\n\r\n    struct  Record  {\r\n        uint blockNumber; \r\n        uint minetime; \r\n        string info;\r\n        string ipfs_hash;\r\n         }\r\n    struct Exporter_Record{\r\n        uint blockNumber;\r\n        string info;\r\n         }\r\n     mapping (bytes32  => Record) private docHashes;\r\n     mapping (address => Exporter_Record) private Exporters;\r\n     \r\n//---------------------------------------------------------------------------------------------------------//\r\n    modifier onlyOwner() {\r\n            if (msg.sender != owner) {\r\n            revert(\"Caller is not the owner\"); }_; }\r\n\r\n    modifier validAddress(address _addr) {\r\n            assert(_addr != address(0)); _; }\r\n\r\n   \r\n    modifier authorised_Exporter(bytes32  _doc){\r\n\r\n         if (keccak256(abi.encodePacked((Exporters[msg.sender].info )))!= keccak256(abi.encodePacked((docHashes[_doc].info))))\r\n      \r\n        revert(\"Caller is not  authorised to edit this document\"); \r\n         _; }\r\n\r\n    modifier canAddHash(){\r\n        require(Exporters[msg.sender].blockNumber!=0,\"Caller not authorised to add documents\");   _; }\r\n\r\n//---------------------------------------------------------------------------------------------------------//\r\n\r\n    function add_Exporter(address _add,string calldata _info) external\r\n    onlyOwner(){ \r\n        assert(Exporters[_add].blockNumber==0);\r\n         \r\n          Exporters[_add].blockNumber = block.number;\r\n          Exporters[_add].info = _info;\r\n          ++count_Exporters;\r\n        \r\n        }\r\n\r\n    function delete_Exporter(address _add) external  \r\n    onlyOwner\r\n    {\r\n        assert(Exporters[_add].blockNumber!=0);\r\n        \r\n        Exporters[_add].blockNumber=0;\r\n        Exporters[_add].info=\"\";\r\n        --count_Exporters;\r\n        }\r\n        \r\n    function alter_Exporter(address _add,string calldata    _newInfo) public\r\n    onlyOwner()\r\n     { \r\n          assert(Exporters[_add].blockNumber!=0);\r\n             Exporters[_add].info=_newInfo; }\r\n\r\n    function changeOwner(address _newOwner) public \r\n        onlyOwner  validAddress(_newOwner)   {  owner = _newOwner; }\r\n\r\n        event addHash(address indexed _exporter,string _ipfsHash);\r\n    function addDocHash (bytes32  hash,string calldata _ipfs) public \r\n      canAddHash\r\n      {\r\n            assert(docHashes[hash].blockNumber==0 && docHashes[hash].minetime==0);\r\n            Record memory  newRecord = \r\n            Record(block.number,block.timestamp,Exporters[msg.sender].info,_ipfs);\r\n            docHashes[hash] = newRecord; \r\n            ++count_hashes;\r\n            emit addHash(msg.sender,_ipfs);\r\n      }\r\n      \r\n\r\n    function findDocHash (bytes32 _hash) \r\n    external  view  returns (uint,uint,string memory,string memory) {\r\n       \r\n        return (docHashes[_hash].blockNumber,docHashes[_hash].minetime,docHashes[_hash].info,docHashes[_hash].ipfs_hash );\r\n        }\r\n\r\n    function deleteHash (bytes32 _hash) public\r\n    authorised_Exporter(_hash)\r\n    canAddHash\r\n    {\r\n    assert(docHashes[_hash].minetime!=0);\r\n    docHashes[_hash].blockNumber=0;\r\n    docHashes[_hash].minetime=0;\r\n    \r\n    --count_hashes;\r\n    \r\n    }\r\n    \r\n    function  getExporterInfo(address _add) external view returns(string memory){\r\n\r\n        return (Exporters[_add].info);\r\n    }\r\n}",
  "sourcePath": "C:\\project\\BlockChain-Based-Document-Verfication-With-IPFS-main\\BlockChain-Based-Document-Verfication-With-IPFS-main\\contracts\\Verfication.sol",
  "compiler": {
    "name": "solc",
    "version": "0.7.0+commit.9e61f92b.Emscripten.clang"
  },
  "schemaVersion": "3.4.14",
  "updatedAt": "2024-05-10T02:36:00.395Z",
  "devdoc": {
    "kind": "dev",
    "methods": {},
    "version": 1
  },
  "userdoc": {
    "kind": "user",
    "methods": {},
    "version": 1
  }
}